:020000041008E2
:4000000000780408EB0208100D00000051030810510308105103081051030810000000000000000000000000000000004D0308104D030810000000004D0308104D030810DA
:400040004D0308104D0308104D0308104D0308104D0308104D0308104D0308104D0308104D0308104D0308104D0308104D0308104D0308104D0308104D0308104D03081000
:400080004D0308104D0308104D0308104D0308104D0308104D0308104D0308104D0308104D0308104D0308104D0308104D0308104D0308104D0308104D0308104D030810C0
:4000C0004D0308104D0308104D0308104D0308104D0308104D0308104D0308104D0308104D0308104D0308104D0308104D0308104D0308104D0308104D0308104D03081080
:400100004D0308104D0308104D0308104D0308104D0308104D0308104D0308104D0308104D0308104D0308104D0308104D0308104D0308104D0308104D0308104D0308103F
:400140004D0308104D0308104D0308104D0308104D0308104D0308104D0308104D0308104D0308104D0308104D0308104D0308104D0308104D0308104D0308104D030810FF
:400180004D0308104D0308104D0308104D0308104D0308104D0308104D0308104D0308104D0308104D0308104D0308104D0308104D0308104D0308104D0308104D030810BF
:4001C0004D0308104D0308104D0308104D0308104D0308104D0308104D0308104D0308104D0308104D0308104D0308104D0308104D0308104D0308104D0308104D0308107F
:400200004D0308104D0308104D0308104D0308104D0308104D0308104D0308104D0308104D0308104D0308104D0308104D0308104D0308104D0308104D0308104D0308103E
:400240004D0308104D0308104D0308104D0308104D0308104D0308104D0308104D0308104D0308104D0308104D0308104D0308104D0308104D0308104D0308104D030810FE
:400280004D0308104D0308104D03081010B5054C237833B9044B13B10448AFF300800123237010BDDC49020800000000608D0910084B10B51BB108490848AFF30080084838
:4002C000036803B910BD074B002BFBD0BDE81040184700BF00000000E0490208608D0910A8430208000000007047FFF7FDFF72B6104C114DAC4209DA21686268A368043B88
:40030000A2BFC858D050FAE70C34F3E70B490C4A00209142BCBF41F8040BFAE709480A490860BFF34F8F00F015F900F0EFF800F09DFCFEE7648D09107C8D0910DC490208A6
:40034000D8CA02080040020808ED00E0FEE7FEE700B504207146084202D0EFF3098001E0EFF30880043002F05FFDFEE708B5012001F062FF08BD00BF704700BF5C4AD2F885
:40038000803303F00F0303F1D00152F8212002F00702032A04D0042A05D092B9554914E0554A116811E003F1C002514951F8222002F01F02112A06D0132A04D04FF4FA41C2
:4003C00003E04E4901E04FF400418BBB484BD3F8902502F00100D3F88825C2F30172D3F8883513F0405F07D0414BD3F88835C3F30173012B02D102E0012300E0002303B137
:4004000008B9032A46D13A48D0F88025C2F31103D0F88425C2F30C02D0F88005C0F300600130B1FBF2F202FB03F2B2FBF0F131E0012B2FD12E4BD3F8402602F00100D3F885
:400440000026C2F30172D3F8003613F0405F07D0274BD3F80036C3F30173012B02D102E0012300E0002303B108B9032A12D12048D0F8002602F07F02D0F80036C3F30423E6
:40048000D0F80006C0F3044002FB01F2B2FBF3F2B2FBF0F1164BD3F88033C3F3011321FA03F215494A601648D0F89030C3F3072301330069000E0130B2FBF0F08860B2FBE2
:4004C000F3F3CB600B6103F5742202F23F220D48A0FB0202C2F387420A7503F2E7330A4AA2FB03239B098B61DB03CB61704700BF0000264000127A008C42020800366E0106
:400500000000214083DE1B43D34D621008B50D4802F0A4FEFFF730FFFFF730FF00221146042001F051FC084801F0E4FC074B1B6893F8513013B1064801F04CFD01F08EFB76
:4005400008BD00BFF8EE0810F8490208C8C80208B8DE081008B502F0C4FC074AD2F8883043F47003C2F88830BFF34F8FBFF36F8F02F0BBFC08BD00BF00ED00E042F2107317
:4005800003FB01F1002805DA4342C3F34E035B421BB201E0C0F34E03194491FBF0F07047F0B583B008F0FEFF0CF03CF909F00AFB09F01AF806460F4627A3D3E9002309F09F
:4005C00067F827A3D3E9002308F0B0FE04460D4600221D4B304639460CF0A6F916A3D3E9002309F055F802460B462046294608F09DFE09F0E7FA08F0F7FF02460B46002036
:40060000124909F06FF90EA3D3E9002308F08CFE00220F4B09F03CF800220E4B08F086FE09F0D0FA07EE900AFDEEE77ACDED017ABDF9040003B0F0BD4D33E44425658B3E64
:400640006666666666127140000008400000F03F000059400000E03F6943AA9AB34D303FD8FD850B29994D3FF8B506460F4601F0F5F90546064C3B4632460146204601F017
:4006800051F841F2B0622946204609F0EBFAF8BD784B0208000000002DE9F0432DED048B97B003F041F803F0CFF84F4C0121204602F022FF0021204602F078FF05460121C5
:4006C000204602F073FF06462A460021204602F0C3FF08EE900A32460121204602F0BCFF08EE100A31462846FFF748FFFFF758FF07EE900AB8EEE77A38EE889ADFED3B7A1E
:40070000C7EE276A16EE900A08F06EFF04460D4633A3D3E9002308F0BBFF8046894618EE900A08F061FF06460F460022304B4046494608F0FBFDCDE90601CDE9044519EED9
:40074000100A08F051FFCDE9020118EE100A08F04BFFCDE9000132463B46264809F022FF22462B46244909A809F06EFF002003F0D9FD6FF07F4003F0D1FD002003F008FE86
:40078000002003F00FFE03F07FFE1C4C204603F0D1FD022003F0F2FD05228421184804F05DF8184803F0C6FD022003F0E7FD3522842109A804F052F8204603F0BBFD022074
:4007C00003F0DCFD962284210F4804F047F801210846FFF749FF17B0BDEC048BBDE8F083CDCCCCCCCCCCFC3F00001D410000C8420000404004DF08102CDF0810C006091098
:4008000030DF08101873091044DF08100000000070B52DED028B92B002F086FF03F014F80121414802F068FE3F4C0221204602F0BDFE07EE900AB8EEE78A0221204602F049
:40084000B5FE02460221204602F006FF08F0CCFE04460D4602460B46344905A809F0F4FE18EE100A08F0C0FE02460B463049684609F0EAFE69462F4809F094FE002003F0B5
:4008800051FD6FF07F4003F049FD002003F080FD002003F087FD03F0F7FD274E304603F049FD022003F06AFD05228421234803F0D5FF234803F03EFD022003F05FFD352286
:4008C000842105A803F0CAFF304603F033FD022003F054FD962284211A4803F0BFFF1A4809F060FE01210846FFF7BEFE0CA3D3E900232046294609F05BF948B102F0D2FF34
:4009000042F2107002F05CFA4022104B5A6002E040220E4B5A604FF4FA6002F051FA83E7333333333333D33F00001D412CDF08104CDF081050DF0810C006091068DF08101C
:40094000B06C09103CEE081074DF08100000384030B587B0002003F0E5FC6FF07F4003F0DDFC002003F014FD002003F01BFD03F08BFD4C4803F0DEFC022003F0FFFC0522C1
:400980008421494803F06AFF19228421474803F065FF782445E0143C002C44DD002003F0C1FC6FF07F4003F0B9FC002003F0F0FC002003F0F7FC03F067FD3A4D284603F0A7
:4009C000B9FC022003F0DAFC05228221364803F045FF19223C21354803F040FF2246344901A809F031FE334803F0A4FC022003F0C5FC4622842101A803F030FF284603F0BE
:400A000099FC022003F0BAFC962287212A4803F025FF01210846FFF727FE4FF4FA6002F0CFF9002CB7DA03F02FFD1E4C204603F081FC022003F0A2FC052282211A4803F09D
:400A40000DFF19223C21194803F008FF194803F071FC022003F092FC46228421174803F0FDFE204603F066FC022003F087FC96228721114803F0F2FE01210846FFF7F4FD73
:400A800000240BE002F00EFF642002F099F940220B4B5A60642002F093F90134312CF1DD07B030BDC00609107CDF081088DF08109CDF081018730910A0DF0810B0DF081062
:400AC0000000384030B58DB002F02EFE62B6002003F028FC6FF07F4003F020FC002003F057FC002003F05EFC06AC224D0FCD0FC495E8030084E8030009F06CFD1E4A80FBEB
:400B00000223C418C317C3EBA404C4EBC404041B03F0BAFC194D284603F00CFC022003F02DFC05228421164803F098FE0CAB03EB840454F8181C01A809F0AAFD114803F043
:400B4000F9FB022003F01AFC5322842101A803F085FE284603F0EEFB022003F00FFC96228421094803F07AFE01210846FFF77CFD0DB030BDECDE081093244992C0060910BE
:400B8000B4DF08101C270910CCDF081008B5134803F0D0FB002003F0C5FB6FF07F4003F0BDFB03F071FC022211460D4803F0B0FE022003F0E3FB692284210A4803F04EFE74
:400BC000022003F0DBFB7D228421074803F046FE01210846FFF748FD08BD00BFC0060910E0E00810D8DF0810E4DF081008B5164803F0A0FB6FF07F4003F090FB002003F058
:400C000091FB002003F0C4FB03F03EFC022003F0B5FB3A2284210D4803F020FE022003F0ADFB4E2284210A4803F018FE022003F0A5FB62228421074803F010FE0121084632
:400C4000FFF712FD08BD00BF58F10810F8DF081010E0081024E0081008B500F035FF0028FBD100F031FF0028FBD008BD70B562B603F03AFC142000F041FD012000F046FDAE
:400C800002F052FD02F0E0FD1E4C0121204602F033FC0021204602F089FC05460121204602F084FC06462A460021204602F0D4FC32460121204602F0CFFC31462846FFF731
:400CC0005DFCFFF76DFCFFF761FF4FF4FA6002F077F8FFF78BFF4FF47A6002F071F8FFF755FFFFF7B9FF0024074D02266E60074B53F824309847AE60FFF7AEFF013404F0E0
:400D00000304F1E700001D4180003240AC4202082DE9F04180460E4617460A4C08256560702000F06FFD404600F06CFDA5606560722000F067FD3946304600F0C7FDA5605D
:400D4000BDE8F0810006324000B583B002AB03F8011D01221946FFF7DBFF03B05DF804FBF8B507460E46094C08256560702000F049FD384600F046FDA5606560732000F085
:400D800041FD304600F06EFDA560F8BD0006324038B50425084B5D60084C402363601023636000F0FFFC0822054B5A6065602023636000F0E1FC38BD00003240800232404A
:400DC0000006324010B5434C6F220021204608F06FFF631C236704F14E03636704F12203A36700F0C9FC03E000F0D0FC032868D800F0AEFD0028F7D100F0CEFC00217220B5
:400E0000FFF7AEFF00F00F0002285CD14021FFF79BFF00210F20FFF7A3FF10F0800F54D002210B20FFF790FF08222B490120FFF76FFFD1210720FFF787FF02210820FFF761
:400E400083FFC2210920FFF77FFF03210420FFF77BFF01210320FFF777FF00210320FFF773FF0A2001F0ACFF002400E01C4601210520FFF769FF642001F0A2FF032105202B
:400E8000FFF762FF322001F09BFF0F210520FFF75BFF322001F094FF00210F20FFF760FF10F0400F05D040210220FFF74DFF234603E0631C9BB2042CD8D1032B07D90520D1
:400EC00010BD012010BD022010BD032010BD002010BD00BF2862020894E0081010F1090F0EDB10F1040F0EDB05280FDD0A2810DD0F2811DD142811DD282811DC5A2210E05D
:400F00004FF496620DE04FF461720AE04FF4167207E04FF4A57204E0DC2202E0B42200E03C22034BA3F87C20A3F87E20704700BF286202082DE9F84F06460D46047828B18C
:400F4000CA4B984205D10127002403E00127FF2400E0002700F010FC4FF00008D0E1C8EBC80AC8EB0A1ADFF80C930AEB090B6F220021584608F09CFE0BF1010EBC4BC3F8AD
:400F800070E00AF148004844063058670AF1200AD14409F10209C3F878902022002397E10FB934780136032D00F29081DFE815F004006500C600270100EB030C14F0400FF0
:400FC00001D0C02100E080218CF8001049B214F0100F02D04FF0300A01E04FF0200A4AEA01018CF8001014F0040F02D04FF00C0A01E04FF0080A4AEA01018CF8001014F06F
:40100000010F02D04FF0030A01E04FF0020A4AEA01018CF800100EEB020C14F0800F01D0032100E002218CF8001049B214F0200F02D04FF00C0A01E04FF0080A4AEA0101A9
:401040008CF8001014F0080F02D04FF0300A01E04FF0200A4AEA01018CF80010013A92B214F0020F02D06FF03F0A01E06FF07F0A4AEA01018CF8001028E100EB030C14F0BA
:40108000400F01D0802100E040218CF8001049B214F0100F02D04FF0200A01E04FF0100A4AEA01018CF8001014F0040F02D04FF0080A01E04FF0040A4AEA01018CF800100B
:4010C00014F0010F02D04FF0020A01E04FF0010A4AEA01018CF800100EEB020C14F0800F01D0022100E001218CF8001049B214F0200F02D04FF0080A01E04FF0040A4AEAF3
:4011000001018CF8001014F0080F02D04FF0200A01E04FF0100A4AEA01018CF80010013A92B214F0020F02D06FF07F0A01E04FF0400A4AEA01018CF80010C7E000EB030C9C
:4011400014F0400F01D0C02100E040218CF8001049B214F0100F02D04FF0300A01E04FF0100A4AEA01018CF8001014F0040F02D04FF00C0A01E04FF0040A4AEA01018CF802
:40118000001014F0010F02D04FF0030A01E04FF0010A4AEA01018CF800100EEB020C14F0800F01D0032100E001218CF8001049B214F0200F02D04FF00C0A01E04FF0040A50
:4011C0004AEA01018CF8001014F0080F02D04FF0300A01E04FF0100A4AEA01018CF80010013A92B214F0020F02D06FF03F0A01E04FF0400A4AEA01018CF8001066E000EB48
:40120000030C14F0400F01D0802100E0C0218CF8001049B214F0100F02D04FF0200A01E04FF0300A4AEA01018CF8001014F0040F02D04FF0080A01E04FF00C0A4AEA010162
:401240008CF8001014F0010F02D04FF0020A01E04FF0030A4AEA01018CF800100EEB020C14F0800F08D0022107E000BFFFFF0F1028620208507C020803218CF8001049B23D
:4012800014F0200F02D04FF0080A01E04FF00C0A4AEA01018CF8001014F0080F02D04FF0200A01E04FF0300A4AEA01018CF80010013A92B214F0020F02D06FF07F0A01E02F
:4012C0006FF03F0A4AEA01018CF8001001339BB2202B7FF665AEC8F1AF031BB299101A4A134003D5013B63F003030133174A02FA83F31B7A09F8013008F101081FFA88F8BA
:40130000B8F1AF0F7FF62BAE00240FE0C4EBC403C4EB03136F220E4919440A20FFF7F8FC07210220FFF710FD0134A4B2AF2CEDD9084BB3F87C4000F029FA8442E4D800F099
:401340002BFABDE8F88F00BF0300008094E00810507C0208286202082DE9F04706460D4600F00AFAD2210920FFF7EEFC0024C6E0C4EBC407C4EB0717DFF8008207EB08099B
:401380006F220021484608F093FC09F1010C784BC3F870C007F1480EC6440EF1060EC3F874E02037B84408F10208C3F87880202000218EE0771C32786E1C95F800900EEB82
:4013C000010582EA090212F0400F04D019F0400F03D0802302E0402300E0C0232B705BB212F0100F05D019F0100F05D04FF0200A04E04FF0100A01E04FF0300A4AEA0303A0
:401400002B7012F0040F05D019F0040F05D04FF0080A04E04FF0040A01E04FF00C0A4AEA03032B7012F0010F05D019F0010F05D04FF0020A04E04FF0010A01E04FF0030A2E
:401440004AEA03032B700CEB000512F0800F04D019F0800F03D0022302E0012300E003232B705BB212F0200F05D019F0200F05D04FF0080A04E04FF0040A01E04FF00C0A27
:401480004AEA03032B7012F0080F05D019F0080F05D04FF0200A04E04FF0100A01E04FF0300A4AEA03032B70013880B212F0020F05D019F0020F04D06FF07F0203E0402239
:4014C00001E06FF03F0213432B70013189B235463E4620297FF66EAFC4F1AF031BB29910244A134003D5013B63F003030133224A02FA83F31B7A08F801300134A4B2AF2CEA
:401500007FF636AF002421E0C4EBC405C4EB05151A4B1D446F2229460A20FFF7F9FB07210220FFF711FCC4F1AF0343F38D032B44002283F822206F2229460A20FFF7E8FB46
:4015400007210220FFF700FC0134A4B2AF2CDBD9074BB3F87E4000F019F98442D2D800F01BF9C2210920FFF7EFFBBDE8F08700BF286202080300008094E00810507C0208A4
:40158000002307E01349086F5522C254496FCA5401339BB2202BF5D970B5002416E0A6080C4DAA6F04F003030B490B441B7A93556F2229460A20FFF7ABFB07210220FFF7D2
:4015C000C3FBAB6F00229A550134A4B2AF2CE6D970BD00BF2862020894E0081008B5002304E00021094AD1540133DBB2152BF8D900210420FFF7A8FB6F2204490A20FFF7C6
:4016000087FB07210220FFF79FFB08BD2862020838B50E4C1023A360142001F0D1FB00F0D9F808220A4B9A604023A3600425A5600A2001F0C5FB65600A2001F0C1FBA5603D
:401640000A2001F0BDFBFFF7BDFB38BD800232400006324038B5FFF793FFFFF7BFFF1E2001F0AEFB234C40256560322001F0A8FBA56000210F20FFF773FB10F0400F36D0FA
:4016800000210B20FFF760FB01210320FFF75CFB03210520FFF758FB01210520FFF754FB322001F08DFB80210420FFF74DFB00210520FFF749FB01210720FFF745FB1E20D2
:4016C00001F07EFB00F094F8102363606560142001F076FB0822084B5A60042363602025A5601E2001F06CFB6560002038BD042038BD00BF800232400006324010B5044685
:40170000FFF746FB2046FFF7E9FB10BD08B510B1FFF77EFF01E0FFF79DFF08B9012008BD002008BDF8B507460E4614461D4613B10120FFF7EBFF24B931463846FFF70CFED3
:4017400015E0631EDBB2012B11D800213846FFF7F1FB012C07D101213846FFF7EBFB02213046FFF7E7FB03213046FFF7E3FB15B10020FFF7CBFFF8BD08B50022024BC3F82E
:40178000082100F089F908BD00003840014BD3F808017047000038400122014B5A6070470000384010B5074C074A0849204600F0E1FD236843F0004323600822044B9A60C5
:4017C00010BD00BF00006740A4C8020878EB0810000632400822044B9A60044A136843F000431360704700BF000632400000674008B50249024800F0F1FE08BDA4C8020827
:401800000000674008B50146154800F055FD144BD3F8C03F13F0040FF9D0114BD3F8042242F48032C3F80422D3F8042222F48032C3F80422D3F80422D3F8042342F48032DB
:40184000C3F80423D3F8042322F48032C3F80423D3F804230422C3F8C02FD3F8C03F08BD0000674008B50146174800F025FD164BD3F8C03F13F0040FF9D0134BD3F8400307
:40188000D3F8042242F48032C3F80422D3F8042222F48032C3F80422D3F80422D3F8042342F48032C3F80423D3F8042322F48032C3F80423D3F804230422C3F8C02FD3F8FE
:4018C000C03FC0B208BD00BF0000674038B50C46054600B121B940F2E6511B4801F094FA22462946194800F02DFD184AD2F80832C3F30803D2F80822C2F3C032D342F4D1FE
:40190000124BD3F8042242F48032C3F80422D3F8042222F48032C3F80422D3F80422D3F8042342F48032C3F80423D3F8042322F48032C3F80423D3F804230422C3F8C02FEB
:40194000D3F8C03F204638BDA0E0081000006740044B1B6913F0080F01D0012070470020704700BF8002324008B54FF48071034802F0BEF8024802F053FD08BDA86202089A
:4019800098650910024A136801331360704700BFA0C8020810B52021002001F0E7FA002409E0204601F012FB20B90849204601F0FFFA02E00134042CF3D9042C03D9A421F4
:4019C000034801F021FA01F0A9FA10BD8519081058EB081008B5FFF7DDFF08BD10B582B002AC012344F8043D00231A461449154802F096FE214603F070FF04F0A9FB60B14F
:401A00004FF48472B021002004F087FC4FF48472B021002004F0ADFC0BE0B0224FF48471002004F07AFCB0224FF48471002004F0A0FC0549002004F087FC02B010BD00BFE2
:401A40000C89091040890910BC420208012901D1002070474FF0FF30704700BF00487047A863020810B504462146034800F024FC0028F9D010BD00BF00006640054BD3F8F4
:401A80000833C3F30803002BF8D0024BD3F84003704700BF0000664008B5084B1B783BB9074A0021074801F09BFA0122034B1A70044B01229A609A6108BD00BF587A020820
:401AC000ACEB081000003840014B1878704700BF0C1634401F4B98422DD00CD840282ED003D8E8B1102828D02FE0802829D0B0F5807F28D029E0184B984228D006D8B0F19F
:401B0000204F0DD0154B984212D01EE0144B98420AD00133984209D0023B984215D101E0002070470F4870470F4870470F4870474FF4A0007047074870470D4870470D4865
:401B400070470D487047034870470C4870474FF4A400704706005200010000F0090000A0040000F0010052000200520003005200010050000200500005005200FF005200CA
:401B800038B5124B1B6893F83130012B04D840F2C3110F4801F038F90C4B1D682A6AB5F8B03013442C46D5F8B420D358002B0BDB084B1868FFF78EFF6B6801229A60636831
:401BC0009B68002BFBD138BD034838BDC8C80208F8EB08105C7A0208020050001A4B186128B102230370FF23437000234380174B1B6893F850202AB300B583B0B3F938302C
:401C0000ADF80030002301931149684601F09EF8BDF90030002B08DB590903F01F03012202FA03F30B4A42F82130084B1B6893F8513023B102220849012000F077FA03B0C9
:401C40005DF804FB704700BF5C7A0208C8C802081944020800E100E0D144020808B50248FFF7BCFF08BD00BF707A020838B50B4B1B68D3F8B4301B58002B0DDA0D46044612
:401C80000B0C1B0423B140F2D521054801F0BCF8A9B26160002038BD024838BDC8C8020838EC081001008A0038B50368002B01DA002300E0094B73B90D460446C2600B0C78
:401CC0001B0423B140F2BB21054801F09DF8A9B2A160002038BD014838BD00BF01008A0038EC081038B504460D4619B99921084801F08AF8074B1B68D3F8B4301B59002BDF
:401D000003DAE3682B60002038BD034838BD00BF78EC0810C8C8020801008A00254B1B6893F8313083423AD900293AD00B6813F01F0F38D170B50D4604461E4B1B6893F86B
:401D40003130984204D340F2C3111B4801F05CF8184B1B68186AB3F8B03004FB0304174E34602A68D2080021686807F0A1FF00212046FFF77BFF346825B940F293310E4800
:401D800001F042F82A4600212046FFF78DFF60B900210A4B1868FFF769FF40B970BD084870470748704706487047064870BD054870BD00BFC8C8020838EC0810747A020858
:401DC00003018A0001018A0010B504461346B2B9A9B9124B1B6893F83130984204D340F2C3110F4801F010F80C4B1B681A6AB3F8B03004FB03240B4B1C60002010BD43B1FF
:401E000049B1084A51609360111D2046FFF786FF10BD054810BD044810BD00BFC8C8020838EC0810747A020803018A002DE9F0411B4B1B68DC68236883422CD90D4646091D
:401E4000A0EB4610012303FA00F819B901F049F8074600E00027124B18680368002B01DA002300E00F4B83B9626852F8263018EA030F05D023EA080342F82630002400E02A
:401E8000094C0021FFF7F2FE00E0084C25B9384601F02BF800E0064C2046BDE8F08100BF747A020801008A00020188000301880004018A000B4B1B68DB681A6882420CD945
:401EC0004109A0EB4110012202FA00F05B6853F82130184203D004487047044870470448704700BF747A02080101880004018A0000018800024B1B680BB9014B18607047B0
:401F0000807A02082DE9F8430446884691461D46089F2C4B1B681BB9B5212B4800F074FF284B1B682C2000FB04F01C18EEB21E50C5F3072363602D0CA560244B1B6893F806
:401F400031309E4204D340F2C311214800F05CFF1E4B1B68196AB3F8B02006FB02162661666893F832309E4204D340F2DF11184800F04AFF154B1B681D6A803605EB46156D
:401F80006561A668330C1B0423B14FF4FF71104800F03AFF330C1B0423B140F2FF110C4800F032FFB3B243EA0646AE60C4F81C90C4F820800023A36117B1B7F90030A3815B
:401FC000BDE8F883807A0208B8EC0810C8C8020838EC0810F0B58FB0044618B95221274800F012FFA369072B03D95621234800F00BFFE36A1BB95821204800F005FF236BCF
:402000001BB959211D4800F0FFFE07AD04F114060FCE0FC537682F6002AD26460FCE0FC533682B60164B1B68B3F93620079B1344ADF83030089B0D93A26AE16A0CAD0095A0
:402040003B460A98FFF75EFF00210091069B0A460598FFF757FF216B284600F077FEBDF93030002B08DB590903F01F03012202FA03F3044A42F821300FB0F0BDB8EC08104E
:40208000C8C8020800E100E0F8B506460F461D4614461AB9FD211F4800F0B6FE1E4B1B681BB9FE211B4800F0AFFE1B4B1B682C2101FB063001FB07314B68012202FA03F37B
:4020C0001B04466802FA06F60269EAB18F69EFB91268002A01DA002200E0104AC2B92288134323600369DC6001238B614D620469330C1B0423B140F2BB21094800F084FEC5
:40210000B2B2A2600020F8BD0648F8BD0648F8BD0548F8BDB8EC0810807A020801008A0038EC081004028A0007028A00F8B505460F4616460E4B1B6823B94FF4AF710D4899
:4021400000F062FE0A4B1B682C2404FB0534236A23B94FF4B171074800F056FEE369B34204D9236A43F826700020F8BD0248F8BD807A0208B8EC08100A028A0070B582B051
:4021800000230193044620B940F2D111284800F03BFE236923B94FF4E971254800F034FE636923B940F2D311214800F02DFE236A23B94FF4EA711E4800F026FE6369DD6830
:4021C0002A0C20D012041A601B682069194B1B68D3F8B430C358002B15DA01A9FFF782FD60B9019803681E0CDBB2E269934206D2226A52F8233013B1984700E0002631461E
:402200002069FFF733FDADB275B16369ADB21D601B68636A1BB198470023636202E0A36A03B198470023A36163691B6802B070BDB8EC0810C8C8020810B50446074B1B68CE
:4022400023B940F2B111064800F0DEFD034B1B682C2000FB0430FFF791FF10BD807A0208B8EC081010B4D0F8003303F00F03072B06D900230DE0D0F84043CC54013300E0B2
:4022800000239342F7D306E0D0F8404321F8134001339342F8D35DF8044B704710B51446D0F80833C3F308039A4200D31C462246FFF7D8FF204610BD036813F4006F01D082
:4022C000802200E04022D0F80832C3F30803934203D0C0F84012012070470020704700BF10B4D0F8003203F00F03072B06D900230DE0CC5CC0F84042013300E000239342C5
:40230000F7D306E031F81340C0F8404201339342F8D35DF8044B704710B51446036813F4006F01D0802200E04022D0F80832C3F30803D31AA34200D81C462246FFF7D0FF57
:40234000204610BDF8B507460D461446D0F8006206F00F060BE0224629463846FFF7DCFF072E01D9430000E003461D44241A002CF1D1F8BD002800F02481F8B505460029A2
:4023800000F0218117460C460B78012B03D93F218F4800F039FD6378012B07D9052B05D0022B03D040218A4800F02EFDA378032B03D94121864800F027FD2378012B07D1B2
:4023C0006368023B0E2B03D94321814800F01CFDA36933F00F0303D044217D4800F014FDA368043B0C2B03D94521794800F00CFDE368043B0C2B03D94621754800F004FD1C
:402400006378022B07D0A268E3689A4203D047216F4800F0F9FC636A33F06D0303D049216B4800F0F1FCE36A33F0730303D04A21674800F0E9FC236B33F4206303D04B2169
:40244000634800F0E1FC6378A678052B07D8DFE803F0060305060603022600E00026A368082B04D8E368082B03D9002302E0002300E0012313B14FF4006200E00022237F2A
:4024800013B14FF4807300E000231A436368013B03F00F03134343F080732B60226A2B6813F4006F01D0802300E040239A4203D35821474800F0A8FCA26A2B6813F4006F00
:4024C00001D0802300E040239A4203D35921404800F09AFC237D0BB9012100E000216278052A01D1022300E000230B43E17C09B1102100E000210B43617C09B1202100E0C4
:4025000000210B432178012902D14FF0004100E000210B43B60006F00C063343A169090201F470610B43120602F0407213432B62237C13B14FF4807200E00022A37C13B14E
:402540004FF4007300E000231A43A368013B03F00F031343C5F8003394F82030C5F80433237C13B14FF4807200E00022E368013B03F00F031343C5F8003294F82830C5F8D7
:402580000432636A03F06D03C5F8C83FE36A03F07303C5F8883F236B03F40073C5F8003F236B03F40063C5F8403F0023C5F8C83E5FB118463B60BB61FB60FB61054B3B62F0
:4025C000F8BD054870470448F8BD0020F8BD00BF3CED0810EFCDAB000140AA00036823F00043036019B100220A60CA608A61036A002B04DB0023C0F8C83FC0F8883F7047DC
:402600002DE9F84305460C46036813F4006F02D04FF0800801E04FF04008D5F8007207F00F07A26A012A19D9D4F82490E262561EB9F1000F00D026B940F27351254800F062
:40264000E3FB324649462846FFF766FEA36A1B1AA362072F00D9400048446062D5F80832C3F30803984533D0A36A012B30D10023A362072F02D8636A1E7801E0636A1E88F8
:4026800000F02FFCC5F840624FF40073C5F8803FD5F8803F00F029FCD5F8883F23F4007222F0010242F4007623F4EE6323F0030323B140F22A41084800F0A6FBC5F8886F68
:4026C000236843F002032360236B0BB101209847BDE8F8837CED0810F8EC08102DE9F04105460C46036813F4006F01D0802600E040267608A769D4F81C8017B1B8F1000FB5
:4027000004D14FF49961314800F07EFB424639462846FFF7C3FD236A03442362E3691B1AE36173BBA368FBB1E3689E4201D8013E00E05E1E2B6813F4006F01D0802300E07B
:4027400040239E4204D34FF42071214800F05CFBD5F8043323F0FF03F6B21E43C5F804630123C5F8C83F02E00023C5F8C83F636823F001036360236B33B304209847BDE803
:40278000F081A169D5F8002302F00F02072A00D940000844A0619E4216D95C1E2B6813F4006F01D0802300E040239C4204D34FF42071074800F028FBD5F8043323F0FF0208
:4027C000E3B21343C5F80433BDE8F0817CED0810F8EC0810002800F0A48170B50546002900F0A18116460C460B78022B03D93F21A24800F009FB637B023BDBB2062B03D952
:4028000040219E4800F000FBA37B3BB1022B05D0032B03D04121994800F0F6FA94F82130012B03D94221954800F0EEFA94F82830012B03D94321914800F0E6FA2378012B79
:4028400006D86368083B082B94BF0023012307E0A37F2BB16368013B062B94BF002301231BB14521854800F0CFFAA368053B042B03D94621814800F0C7FA6369FF2B03D927
:4028800047217E4800F0C0FAA369FF2B03D948217A4800F0B9FAA37C6BB1237833B9A368092B05D1A37B2BB1012304E0012302E0012300E000231BB14A21704800F0A4FADD
:4028C000636B23F4366323F00D031BB14C216B4800F09AFAE36B23F4EE6323F003031BB14D21664800F090FA2378022B01D1A37F13B16268013A00E00022237F13B14FF466
:40290000803100E00021A368082B02D84FF4006300E000230B4302F00F02134343F000732B60226B2B6813F4006F01D0802300E040239A4203D36221504800F065FAA26BD6
:402940002B6813F4006F01D0802300E040239A4203D36321494800F057FA626A2B6813F4006F01D0802300E040239A4203D36421424800F049FA23781B0603F040732B641E
:40298000637F0BB1402200E00022A37C13B14FF4806300E000231343227C12B14FF4807200E000221343627C12B14FF4007200E000221A43E36A013B1B0403F47023134388
:4029C000627B013A02F007021343A27B120102F030021343AB64237B13B14FF4807200E00022E37B23B92378022B03D1012302E0012300E0002313B14FF4007300E000239C
:402A00001A43A368013B03F00F031343C5F80033227DA3691B0403F47F031343C5F81033E26AD5F8003303F00F0303339A4201D3102A03D97A21114800F0E6F9E37F23B1C8
:402A40002378012B03D0002302E0002300E0012313B14FF4807200E00022637B013B03F007031A43A37B1B0103F0300313436B64237B2BB14FF4807203E000BFBCED08108A
:402A80000022A368013B03F00F0313432278012A02D14FF4803200E000221343C5F8003294F83030C5F8043394F8203013B14FF0007200E0002294F82130012B02D14FF030
:402AC000807300E00023134394F82820012A02D14FF4803200E00022134394F8242013432B6594F83830C5F80432636B23F4926323F002031B051B0DC5F8C83FE36B23F06F
:402B00008C035B055B0DC5F8883F76B1002070603060B060F0603062F0623063044B736370BD04487047034870BD002070BD00BFEFCDAB000160AA000B694A69934202D320
:402B40004869181A7047CA694869101A184470472DE9F04107460D46036813F4006F02D04FF0800801E04FF040084FEA5808D7F80863C6F308062C6926E00134EB689C4236
:402B800000D100246B699C420FD12B6B0BB1082098476B699C4208D10023C7F8C83F0CB1013C13E0EC68013C10E0D7F84023D7F8003303F00F03072B02D8AB681A5502E0AA
:402BC000AB6823F81420013E002ED6D12C61EC6829463846FFF7B0FF201A804519D908B1441E00E000243B6813F4006F01D0802300E040239C4204D34FF42071064800F045
:402C000003F9D7F8040320F0FF03E0B21843C7F80403BDE8F08100BFF8EC081038B504460D46D0F8003E13F0080F35D0D0F8CC3F13F448730AD04A681A434A60C0F8C03F9E
:402C4000D0F8C03F0B6B0BB110209847D4F8CC3F13F4006F09D06B6843F400636B604FF40063C4F8C03FD4F8C03FD4F8CC3F13F0010F11D0EB6923B129462046FFF72EFDD9
:402C800005E0AB681BB129462046FFF761FF0123C4F8C03FD4F8C03FD4F8003E13F0040F2ED0D4F88C3F13F4A0630AD02A681A432A60C4F8803FD4F8803F2B6B0BB12020D1
:402CC0009847D4F88C3F13F0010F08D029462046FFF796FC0123C4F8803FD4F8803FD4F88C3F13F4007F0BD00022C4F8882F2B6823F001032B60EA622B6B0BB1022098478B
:402D000038BD00BF38B50D4B9A680D4B9A420FD10D46044621B940F237110A4800F074F804F11003064A52F8230042F8235038BD1030054B53F8200038BD00BF00ED00E002
:402D400000400208FCED08100000081048B338B504460D464368072B03D93221134800F053F8B4F900306268002B08DB5201D2B203F1604303F5614383F8002305E003F094
:402D80000F035201D2B20A49CA540A4B9A680A4B9A4208D12946B4F90000FFF7B3FF002038BD06487047002038BD00BFFCED081014ED00E000ED00E0004002080100560056
:402DC00010B5044605E0084B186800F081F8A4F50044B4F5004FF6D8044B186800FB04F000F076F810BD00BFA8420208A442020808B5034B1B7800FB03F000F069F808BDD2
:402E0000A042020801BEFEE738B50D46044C18220146204607F04CFCA5610020FFF7F2FF48490208FEE700BF08B50268254BDA6142681A6282685A62C2689A620269DA6295
:402E400042691A6382695A63C2699A631E4A916AD963D16A1964516A5964516B9964926BDA64F1EE103A13F0900F27D0026A154B1A65426A5A65826A9A65C26ADA65026B5C
:402E80001A66426B5A66826B9A66C26BDA66026C1A67426C5A67826C9A67C26CDA67026DC3F88020426DC3F88420826DC3F88820C26DC3F88C20026EC3F89020FFF7B2FFCD
:402EC00008BD00BF4849020800ED00E0000000000230800803D001300238FCD100BF00BF7047EFF3108072B6704780F310887047084B1B6813F4803F07D17047064B53F812
:402F0000243003B19847013401E010B50024042CF4D910BD10E000E0C07A0208044B1A6842F002021A601A6842F001021A60704710E000E0042805D10A4A136843F0040389
:402F400013607047084B1B681A68D3F8A030000600F04070D050034A136823F004031360704700BF10E000E0C8C8020810B50C46002304E000210A4A42F823100133042BD6
:402F8000F8D9084A084BDA63FFF7D4FF24F07F44064B5C6000229A60FFF7C0FF10BD00BFC07A0208F12E08100040020810E000E00346042805D8044A52F8200042F8231048
:402FC00070470020704700BFC07A0208042803D8024B53F82000704700207047C07A020800287DD00346002A7CD070B45068000280B29568AD0405F480252843D468240450
:4030000004F4403404431069000600F0E0602043147F0CB1012400E0002420430C1DA4011851D06828B903EB81100024C0F808410CE0012805D1146803EB8110C0F8084114
:4030400004E003EB81100124C0F80841106938B9546903EB8110C0F80C419469C0F81041146803EB8110C0F81441906CB0F1FF3F17D0946A04F00F04166B360206F47066BE
:403080003443956B2D0405F470252543146C2403A4B22C430001C0B2204303EB8114C4F82001506A00F00300D66A360106F030063043556B2D0205F440752843D46BA40121
:4030C000E4B20443506C800000F00C00204303EB8113C3F82401126AC3F83821002003E0024870470148704770BC70470100B600002800F0AC8070B40446002A00F0A980D3
:4031000092F828300BB1012500E00025137F0BB1022300E000231D431669B60406F4802645EA060395682D0405F440351D431668300600F0E0602843136B556B43EA4503E1
:403140001B0503F440130343906B43EA8000052E03D1D3681B029BB202E053681B029BB20343081D800123501368062B08D104EB81130120C3F808013F20C3F828011DE0B8
:40318000936843B904EB81130020C3F808013120C3F8280112E0012B08D1506904EB8113C3F808011C20C3F8280107E004EB81130120C3F808011220C3F82801106A04EB97
:4031C0008113C3F80C01506AC3F810015069C3F814019069C3F81801136EB3F1FF3F17D0106C00F00F00966C360206F470663043156D2D0405F470250543906D000380B29A
:4032000028431B01DBB2034304EB8110C0F82031D36B03F00303566C360106F030063343D56C2D0205F440752B43506D8001C0B21843D36D9B0003F00C03034304EB81149B
:40324000C4F82431D36AC4F83831002002E002487047014870BC70470100B600014B1860704700BFC8C802082DE9F8430E46074618B93A217548FFF7C7FD1EB93B2173489E
:40328000FFF7C2FD002F00F0DA80002E00F0DA8032686F4B13401BB14A216C48FFF7B4FD72686C4B13401BB14B216848FFF7ACFDB36813F0FC2F03D04C216448FFF7A4FDF8
:4032C000F36813F0FC2F03D04D216048FFF79CFD337D032B03D94E215C48FFF795FDB369B3F5803F03D34F215848FFF78DFDF36D072B03D950215548FFF786FD336EB3F551
:40330000803F03D351215148FFF77EFD736EB3F5803F03D352214D48FFF776FD736843F000437B60B3683B61F3687B613369BB61337D9B07FB61B3693B62336803F460685A
:40334000736803F00409002435E02546A31D06EB83035A68404B13401BB163213B48FFF753FDAB1D06EB8303596805F1200247F822105B6813F0012F0BD1B8F5606F08D12E
:40338000B9F1000F05D04FF47842344B23F8152003E00022314B23F81520726F02F11C7303F58033520093FBF2F31BB22C4A42F825300134E4B20F2CC7D9F36DC7F818322E
:4033C000F36DC7F81032336EC7F82832336EC7F82032736EC7F83832736EC7F8303296F87030DBB1B36EB3F1804F03D382211748FFF70AFDF36E23F44F0323F0FF031BB126
:4034000083211248FFF700FD6FF04043C7F80433B36EC7F80033F36EC7F84433D7F8003F3F2B02D0D7F8003F13B90B23C7F8003F336843F400133B600020BDE8F8830948B8
:40344000BDE8F8830748BDE8F88300BFB0EF08100811DF0001FE302088CA887ECCC80208ECC802080100060038B50D46044618B9B5211748FFF7C8FC2CB3002323606360B3
:403480004FF0031222616261A361E361236206E003F12002002144F822100133DBB20F2BF6D90023C4F81832C4F82832C4F838325DB16FF04043C4F804330020C4F84003E9
:4034C000C4F8440338BD034838BD002038BD00BFB0EF08100100060008B50368002B0ADBD0F8A032002BFBDB036843F0004303600220FFF77DFC08BD38B505460C460129E1
:4035000004D940F271110648FFF77EFC012C04D16B6843F480336B6038BD01236B6238BDB0EF081038B505460C460F2904D94FF415710848FFF768FC0F2C07D8203455F853
:40354000243013F0012F03D0002038BD002038BD012038BDB0EF081038B505460C460F2904D940F222211048FFF74EFC0F2C14D821462846FFF7D6FF80F0010010F0FF0F08
:4035800005D06B6813F0080F09D1002038BD6B6813F0040F05D1002038BD002038BD012038BD012038BD00BFB0EF081038B505460C460F2904D940F27B210648FFF724FCFE
:4035C0000F2C04D8603455F8240080B200E0002000B238BDB0EF0810F8B506460C4615460F2904D940F27B311948FFF70DFC0F2C2BD8736813F0800F22D104F1200356F822
:40360000233013F4806F1BD07768C7F302170137012303FA07F7736813F4807F02D1102F00D9102721463046FFF796FF20B9ADB2B5FBF7F52DB203E03FB295FBF7F52DB200
:40364000044B33F81430ED1A2DB22846F8BD00BFB0EF0810CCC8020870B505460C4616460F2904D94FF477711348FFF7CDFB0F2C1AD86B6813F0020F19D1324621462846AD
:40368000FFF7AAFF07EE900AF8EEE77AF2EE046A67EEA66A094B53F8243007EE103AB8EEC77AC6EE877A04E0DFED057A01E0DFED047A17EE900A70BDB0EF0810ECC8020879
:4036C0000000000070B539B900240AE015F8010BFEF7C8F9013402E016460D460024B442F4DB204670BD00BF70B561B900240FE0FEF7C4F9C0B2287001340A2808D00D2853
:4037000006D0013502E016460D460024B442EFDB204670BD08B502490248FFF77FFA08BD2CC902080000664008B5114B1B785BB9104A11491148FFF74DF811491148FFF799
:4037400005FB01220A4B1A700E4BB3F90030002B08DB590903F01F03012202FA03F30A4A42F82130054A136843F00043136008BDD47A02082CC90208ECEF08100000664031
:403780001537081070EB081000E100E038B504461E4B1A68916892F8703003F00203DBB243F08043C1F800340369FF2B0AD89168B2F874200A44916821F47F411B029BB28F
:4037C0000B439360114B1A68906892F87310032303FA01F592F8703092F8721003FA01F1294303F002030B4343F00043C0F800349368D3F80034064D00212846FFF734FE4F
:40380000A1682846FFF730FD38BD00BFC8C8020800001D4108B5084B1B7963B907490848FFF794FA044B5B792BB90122024B5A710448FFF7ABFF08BDD87A0208753808104A
:4038400060EB081068F0081008B5084B1B7913F0010F06D1FFF7DEFF044A137943F0010313710348FFF738FE08BD00BFD87A020800001D4110B5094BD3F81042072C04D984
:4038800040F231610648FFF7BFFA044BC3F81042D3F81022D3F8103210BD00BF00001D412CF0081008B5084B1B783BB9074A06210748FFF71DFC0122034B1A70044B4022AA
:4038C0009A609A6108BD00BFDE7A0208F4F0081000003840064B5A68596B01325A60C2008A18596A51600021117058627047C04664C902080F2330B542680E4CD900091977
:403900000D6C2100AA4202D2013BF7D211E00F2B0FD82468A21A0A608268C068002A00D05060002801D0026003E00833DB00CB185A6030BD64C90208F8B5284C0600E36821
:40394000A26B013B0818D3180D00984206D80368002B03D14368F618FFF7CCFFA36B9D420BD92B1F1F68EF1B3B68002B05D17B683800F6183D00FFF7BDFF0F23DA00A2181C
:40398000126C964202D2013BF8D225E00F2B23D80833DA00A21850680022A91904392A606E60A8602D610E6029000831904200D04160EA602200DB00E318A8605960236866
:4039C0002932F31823601278002A05D1E268D31AA268934200D9A3603000F8BD64C90208F0B5234B87B09C6BDB680490013BE318039323686568002B30D1039B6719BB42B2
:403A00002CD93B680293002B28D0194EDB00726B9B5C012B22D17B6820000193F36A0593FFF768FF3B68726BDB00D3185C60019A3900200006F021F9029B059A934202D11E
:403A4000736B5B1B7363019B2800E118FFF774FF049B002B01D0984206D2019D039B6419A342C6D8012000E0002007B0F0BDC04664C90208002806D0034BDA6B0260002A8E
:403A800000D05060D863704764C90208034BC0005B6B1818406808307047C04664C90208064A10B5D3690133D361526BC300D3181A7801321A70FFF7E9FF10BD64C9020830
:403AC000036810B5083B094C1B68626BDB00D3181A78012A04D9E169002901D00139E161013A1A7000230360180010BD64C902080322024B9143186059607047E07A020895
:403B000010B5041E0BD0064B5A6BC300D3185B6819005868FFF710FF2000FFF7DBFE10BD64C90208F7B5224DEB6A002B07D1214B99685868083105F0C9FB841C03E02B69C2
:403B40001C1DDB08E418E00000F0CAF80126071E2CD06A6BC300D3185E68EB6A083601932B69696BDA00144B30001B68984729696E630B00CA000432EF62B218601E8342E4
:403B800003D2013313600832F9E7DB00F31800265E60074B5A685962511A091959601C61019BB34202D01800FFF7AAFF3000FEBD64C90208E07A0208F442020870B5184CAA
:403BC000230028331A78002A29D101321A70154B0F32DA609A68002A02D15A6892089A605A2210252262002228009040D100611801320864102AF7D1586819680300012500
:403C0000143BCB180E3A22616363A163E0605D6065626560FFF790FEFFF784FF256370BD64C90208E07A0208F0B5040085B0FFF7C5FF0323294E03349C43376C201DB842C2
:403C400000D30700F26B1400002C06D0231F196823688F4232D01C00F6E7F268B36B944663440193043B02931B680393039A019B9D1A2B68002B06D02000FFF7B1FE029B7D
:403C80001D68019B5D1B2B68002B23D16B689F4220DC28001C1DFFF72DFEF368E41BDB1BF36073692C19DB1973616B68D81B02D02900FFF741FE231F1F600BE0002B01D05D
:403CC000616859606168002900D00B60A24201D12368F363200005B0F0BDC04664C90208F0B585B00400FFF769FF3C4D2E6CB44203D3032303349C4326002B680C360196C6
:403D0000B34241D32B6B6A689A420FD96B686F6A013B6B60FB0003936B6BFA009B185A686A6201221A70002F0AD12DE0013B2B63FFF7F8FE2B6B01332B630028E6D023E046
:403D40000F23DA00AA18126C964201D2013BF8D21A00DB004433EB180F2A0DD81968002907D08C68002C04D061688E420ED9A168F5E701320833EFE73000FFF731FE00281E
:403D8000DED03800FFF7A6FD002723E0636802939E1B2B6C0C339E4201D2029B01932000FFF7A8FD6B6B039A9B185C60019B019A63600023A360019B2760E1180B1F2461FF
:403DC0001A601300029A934204DA1300019A981AFFF7B2FD380005B0F0BDC04664C90208002310B5984202D0FFF77AFF0300180010BD000037B50500FFF7F2FF041E0AD04C
:403E0000FFF74EFE054B01901B682A000021984701A8FFF755FE20003EBDC046F8420208514BF0B51B688FB0DA69D469A589A84208DBE189814205D32168451B0991012133
:403E4000494215E0A168002900D184E00D88A84200DA80E04E8886427DD3451B4968A8B266688000081809960021455E0221415E0891691C6FD022215E5E2420195E069108
:403E8000127E0A92A27C0A9951430C91227C0B922A229B5E1800079301F040FD324F0D903A680699D369926B300005920C9A5543099A551904950125A27C02950392DA7E75
:403EC00001929B7E0B9A00930A9B01F093FE089B01331BD00220079B184301F01FFD3B680899DA699B6B300005930C9B4B430999CB180493A37C02950393D37E0699019353
:403F0000937E0B9A00930A9B01F074FE164D2B68DB695A7E1B7E9A4217D9079B022B14D00420584001F0FAFC2B68069AD8690B99437E057E9B18827E51438A19C17E069840
:403F400069430918300001F045FD6B4634229B18187801F0E3FC044B617C1A68538CCB1853840FB0F0BDC046DC420208044B1B68DB69DB69002901D01A7C0A60587C704737
:403F8000DC42020802230B80704710B5C3699A89914203DBDA8901208A4210D29B68181E0DD01A880020914209D35C888C4206D3891A5B688900C85AC04380B2C00B10BD8B
:403FC000002807D003888B4202D843888B4201D28068F5E770470000F0B5334F8BB03B6804002A215A5EDB690100D8690792FFF7E7FF002855D00388E41A4368E4001E1907
:404000000798B47801F08AFC39680990CD6932782B7E08932423C85E84462223C85E896B089B059171680394049101210291E97E0191A97E0091614601F0DCFD3B68DB694E
:404040005C7E1A7E089294421FD9079A022A1CD0DD7E00F0EDF8079000F0E4F800F062F93A682423D15E2223D05E2300D2696B43D47E32785B186243089C1218654369182D
:4040800001F0A8FC079800F04DF9099801F046FC054B71781B68DA69927E4A43598C52185A840BB0F0BDC046DC4202080C4B70B51B680400DE690D000100F069FFF780FF3D
:4040C00000280CD002884368A41AE4001C196078B37E5843002D02D0227853432B6070BDDC42020801230B80704710B5C069FFF767FF431E9841C0B210BD000070B5244E3D
:40410000040032680D00D37E002B40D0917CC9070FD5D069411CC97F007E814200DB411E2420125E200051185B18013B2A0001F051FC33689A7C920711D5DA69D11CC97F32
:404140000132D27F01314910511A24201A5EDB7E89185B18013B2A00200001F03BFC3268937C5B0713D5D1694B1C0331DB7FC97F591A01392423D05ECB43DB171940D37EB8
:4041800041185B18013B2A00200001F023FC70BDDC42020810B5044B1B682221595E0139FFF7ACFF10BDC046DC42020810B5074B00211B6822229C5EDB69013C5B689847C5
:4041C000201A01302100FFF799FF10BDDC420208FF2230B5040014400A40A21A92B213B2002B01DA524213B25B431D00FF23020A1A4014000A0A1340E21A92B213B2002BF6
:4042000001DA524213B2000C5B43090C411A89B208B25B19002801DA494208B280B24043C01830BD10B501F04DFF01F053FE10BD10B501F04FFF01F04DFE10BD70B500289A
:404240002CD0002926D0002A25D013880D881C1C2EB21BB2B34200DD2C1C048053884D881C1C2EB21BB2B34200DD2C1C448093888D881C1C2EB21BB2B34200DA2C1C8480AE
:40428000D388C9881A1C0CB21BB2A34200DA0A1CC28003E01100082205F0E4FC70BD00280DD0038889B2CB180380838892B2C91843888180D3184380C388D218C280704741
:4042C000024B1B685884998400207047DC42020830B503000222845E06200A5E0020944213DC02228C5E06255A5F94420DDC00229C5E04254A5F944207DC00228A5E04210E
:40430000595ED00FCB179142584130BD10B501F0CBFF02F045F802F0A3FD10BD10B501F01DFE10BD10B501F021FE10BD10B501F0F5FA10BD034B021E1B68D86900D0DA61AF
:404340007047C046DC420208084B10B51880084B0A001980074B08491B685B7C9B005B58D9680C6A01001800A04710BD4CCA02083CCA0208DC42020874CA0208034B1B6872
:404380002C215A5E988510007047C046DC420208034B1B682A215A5E588510007047C046DC42020810B5084A08491268084C0300907C0C600749002B01D10B6001E0064CA4
:4043C0000C60937410BDC046DC42020850CA0208AD41081044CA02089541081070B50024094D0A4E10C53368210028007022984733680422210006489847064B1D60064BD0
:404400001C70064B1C6070BDF07A0208F842020874CA0208DC4202085CCA020838CA0208014BD8607047C046DC420208F0B50700160085B00C000420019301F06FFA114BB8
:4044400000901A68D36CDD199E19176D019B3C19FF1802AB18001D809E805C80DF8002F07FFC002804D1009801F058FA05B0F0BD3B0032002100280001F0ACFA02F0C0FB56
:40448000EFE7C046DC420208002110B50800FFF717FF034A034813000100FFF7C7FF10BDFF3F000001C0FFFF024BDA6FD86742607047C046F07A0208084B10B51A68002A60
:4044C0000AD101321A60FDF74FFAFDF787FA0448044B0360FFF7E8FF10BDC046F07A0208707B0208DD43081070B5FFF7E5FF2E22314B1A70FDF76EFA304C314D2100314BEB
:404500000C3123672B681A1DDA630432A2619B631B645B7C2C4A9B009858C3681B6B98472A4B6366EB6823622B680833A36101232377E37702F088FD2300032268331A70AB
:40454000234BE064606F6363A36301F007FDA86801F00CFD1F4A204B1A6001F061FC050001F040FE060001F043FE002E01D0002808D101F027FE060001F029FE0100300082
:4045800001F02AFE00210800FFF7DEFE02F0B6FCA36F002B0AD0A36F002B07D01B68002B00D09847A36F5B68A367F4E701220B4B28001A7070BDC0462DCA0208F07A02082E
:4045C000DC420208E888091074CA0208E0880910785634FFFC8809106CCA020854CA02080300002083420ADC054A9B009858002805D0C3681B68002B01D00068F7E77047EF
:4046000074CA020810B5FFF735FA10BDF8B506000D0017001C1E01DD00201BE01C20FFF703FB0028F8D0002D01D005610BE00A4BA200D358002B06D01A68002A01D013004F
:40464000FAE71B690361002384618782C660036043608360F8BDC04674CA020883690C499A0010B554580368A04204D15350002B01D000225A604268002A00D013600368E3
:40468000002B00D05A6000230360436010BDC04674CA020830B5002801D101203BE08269002AFADC1C4B19788A4201DB012119701A49920053580D00002B02D1505018004D
:4046C00029E05968002901D00B00FAE7C1680968DC6824688C4203DD1B68002BF8D1DCE78C420AD1848A012C07D11C68002C04D02300E4682468A142F7DD5968002902D00A
:404700000860416000E0A85058600022984200D01A000260002030BD25CA020874CA020870B51C00FFF772FF051E0AD0FFF7B2FFEB681B68002B04D1034B16341B68A40069
:40474000E550280070BDC046DC420208F0B5040087B0002800D17BE002F0BAFD3D4D02902B6822229B5E039302F09CFD2A6883B20093938C00995B1A93842378002B5AD009
:404780003549200002F010FE01000600200002F035FE304B1A680323918D19400300012905D00023022902D1C30F1B185B10518C04ADCB1A9BB219B25184298081B2019114
:4047C00001395B18AB802423D35E6A4617896B80013BFB182A0020003100EB8002F03CFE1C4D04AB5B882A6820009384310000F0D3F8241823780A2B01D00D2B12D1032101
:404800002B689A8D0A40013A012A02D86A46928900E01A8C5A8422780A2A09D19A8CBF189F8405E004AA1088019A2B68101858842378002B0AD10321064B009A1B68988C89
:4048400010189A8D98848A439A8501E0013494E707B0F0BDDC420208FF7F000010B5034B1B6859849A84FFF771FF10BDDC420208F0B5C76889B00400002007911600FFF785
:4048800055FD05000220002F04D03B79002B01D0284302E02B0083431800FFF747FD216900290DD001206388228803900290E0680190A06800900C6807983100A0471DE038
:4048C000114F21003B68E0685A7C104B1B689847E188002803D1012901D13B68986B638822880590A0680490A088029101210390019100910798310001F07CF92800FFF705
:4049000015FD09B0F0BDC046DC420208E0420208104B73B51B680600D86C1B6D0C18D5186B466A461C8033885580013BE318938073886846013BEB18D38002F011FA002885
:4049400007D02A0021003000FFF792FF02F058F9F5E773BDDC420208044B10B51A68002A00D1186000F036F810BDC046807B0208F8B5084F06683B6804001B68300098473D
:404980003B6805005B6830009847301820602800F8BDC0466CCA020870B506000D000024002D08D0054B30001B68013D5B68984736182418F4E7200070BDC0466CCA020856
:4049C0000078704701207047012070470170012070470000034B10B51B68002B00D0984710BDC046E07B02080200FF231100000A194010B51840120C40181340C0188030E1
:404A0000FF30024904F074FC10BDC046FD020000002800D000487047FFFFFF0001207047F7B58068C46A856B624307245218D2080192026A0C409200002D18D0802121413F
:404A4000CCB2A446C94301248218151F019E2D68AD192F783E000E40234201D066463E436400043A2E70E4B29042EED117E001210D00A540ECB2A446ED438218141F019EA9
:404A80002468A41927783E002E400B4201D066463E434900043A2670C9B29042EED1F7BD70B5072584680D40E36AA06B5A43236A5218D2089B00002810D08021294100201C
:404AC000CDB20121E318043B1E68B65C2E4200D008434900C9B29C42F5D10EE001210E00AE40E318F5B2043B1E68B65C2E4200D008434900C9B29C42F5D170BDF8B50D00F1
:404B000016000400FFF7CCFF070023699B6898473B003200434029002000FFF781FFF8BDF0B580688BB00090066AC06A5B1A42435F1CA44B5218D2081B68019003920098E6
:404B40001A7C806BD20779D50722082311405B1A002839D0F8321000DD1B0841AA40C4B21040C2B238009F4200DD1800381A009D0190B00028189F4200DB221CD3B29C46C4
:404B8000FF25031F039A1B689B183A00002905D064461A7862401A70019A0133072A05DD1E78083AF6431E700133F7E7002A06D00824A21A2C0094401E7866401E70009B5C
:404BC00004388342DDD1FAE0FF221000DD1B88402A41C4B21040C2B238009F4200DD1800381A009D0190B00028189F4200DB221CD3B29C46FF25031F039A1B689B183A0064
:404C0000002905D064461A7862401A70019A0133072A05DD1E78083AF6431E700133F7E7002A06D00824A21A2C0014411E7866401E70009B04388342DDD1C0E00722DB6BEF
:404C400011401B68FF22019308230491591A130000285AD00498CC1B0341A2401A40D8B2D3B23A008F4200DD0A00BA1A09928F4200DB031CDAB2DB435BB2089301230792C6
:404C80000293013E009AB300D458039B3D00E418049B002B0BD02278089B019902981340014201D0079B1343099D23700134072D14DD029A0199444B11404A1E91412B400D
:404CC0000593059A414B49421B68D2102000C9B206929847069BE418059BED1A002D0DD0082321785D1BF733AB400A000198029D9A43284201D00B43DAB22270029B5B0092
:404D0000DBB20293002EBCD159E00498CC1B834022411A40D8B2D3B23A008F4200DD0A00BA1A09928F4200DB031CDAB2DB435BB20893012307920293013E009AB300D458C3
:404D4000039B3D00E418049B002B0BD02278089B019902981340014201D0079B1343099D23700134072D14DD029A0199164B11404A1E91412B400593059A144B49421B6823
:404D8000D2102000C9B206929847069BE418059BED1A002D0DD0082321785D1BF7332B410A000198029D9A43284201D00B43DAB22270029B5B00DBB20293002EBCD10BB089
:404DC000F0BDC046DC420208F8FF0000F8420208F8B505000E0014001F00069B9C4207DC22003B0031002800FFF79AFE0134F4E7F8BD002382680B804B80D36A013B8B8058
:404E0000136B013BCB80704700B58368481E0D2818D804F047FA090B0D0F17171711131A1A070707002011E0586A0FE0986A0DE0D86A0BE0186B09E0186A07E001201B6A1B
:404E4000984003E00120404200E0012000BD000009390020062902D8014B8900C85870472489091010B501290FD1094B1B68587CFFF7B6FB03699B68984701F0F8F9054B98
:404E8000012803D0044B082800D00023180010BDDC420208988909100C8A091010B5002206218069FCF7D2FD10BD10B5002205218069FCF7CBFD10BD73B504000E0015003B
:404EC00000210822684604F0F3FE6A460321A06900960195FCF7BAFD73BD0000F7B51D000F4B14001B6806001A7C0F00D20708D5A54213DB220039003000FFF7FFFD01344F
:404F0000F6E7DB6B1B680193AC4207DC2200019B39003000FFF784FD0134F5E7F7BDC046DC420208F0B591B00193179B0390581E06910592072801D900F05EFC04F0BCF976
:404F4000230021005C041F005C045C045C0408000723069A1340802211001941C9B29A40099101219940D3B2199A0A939446019BC9B263440293059B07910893FBE2059BE0
:404F800050E2059BB0E11A9A069B9446634409930723099A134080221A41D2B20A9201229A40D3B20C93059B0793059A079B9B1A169A9A4201DC00F01FFC1B9BBE4C5B6897
:404FC0000693039B9B680293D96A1A6A079B5943099BC918CB08049303232168087C1840022800D1A1E0984200D10FE1012800D10CE11B9B06981B680893834210D1CB6B17
:40500000089A1D681A60099A019B09999B18013B079A0398FFF784FD2368DB6B1D6043E1029B92009B6B002B3ED00127029B9E1808990FAA394011700699049B3940517025
:40504000321F12680A99D218019B1A989C46199B0B936346002B20D08025054113780D930B9B1C782C40651EAC410FAD2D5D0D9C8C43002D01D00D9C0C43013014700828CD
:4050800003D10B9801300B900020490801D10132803101235B429C44DBE7029B7A00043ED7B2B342C4D1FFE00127029B9E1808990FAA394011700699049B39405170321F40
:4050C00011681A98C918019B0C9A9C46199B0B936346002B22D0802505410B780D930B9B1C782C40651EAC410FAD2D5D0D9C9443002D01D00D9C144301300C70082803D1CF
:405100000B9801300B9000205200D2B2002A01D10131013201235B429C44D9E7029B7A00043ED7B2B342C2D1BEE0029B92009B6B002B34D0029B9A1801230893089B06998C
:405140000A9819400B91111F0968049B019D1A9C199EC918002D19D08023234137783B4209D00B781F009C460B9B8743002B01D0674607430F700134082C01D1002401364E
:40518000400801D101318030013DE3E7089B043A5900CBB20893029B9342CFD184E0029B9A18012308930899069B019D0B40111F08680B93049B0C991A9C199EC018002DF6
:4051C0001BD08023234137783B4209D003781F009C460B9B8F43002B01D067460F4307700134082C01D1002401364900C9B2002901D101300131013DE1E7089B043A59005A
:40520000CBB20893029B9342CDD14DE0029B92009B6B002B23D0029B9A18111F0968049B0A9C019D1A98199EC918002D12D08023034137783B4202D00F7867400F700130D7
:40524000082801D100200136640801D101318034013DEAE7029B043A9342DED124E0029B9A18111F0868049B0C99019D1A9C199EC018002D14D08023234137783B4202D013
:4052800007784F4007700134082C01D1002401364900C9B2002901D101300131013DE8E7029B043A9342DCD1189A199B944663441993079B013377E6DC4202081A9A199BF1
:4052C000944603221C78069B63440493C34B1B681B7C134010D0022B4DD0189A199B944663441993029B01330293059A029B9B1A169A9A42E2DC7FE21B9B1A9D199E049941
:40530000002B23D003235A1B5200DB18981ABA3303412340D3401B9A9B009B580398029A01354F1CFFF77CFB042D02D1002574780136019B049A39009B189F42E2D1CCE7D5
:40534000019B049A39009B189F42C6D003235A1B5200DB18981ABA3303412340D3400398029A01354F1CFFF75BFB042DE8D1747800250136E4E71B9B1A9D019E199F002B47
:4053800027D0019B049A991803235A1B5200DB18981ABA3303412340891BD34006D01B9A9B009B580398029AFFF73AFB0135042D02D100257C780137013E002EE1D18CE796
:4053C0000135042D02D100257C780137013E002E83D0019B049A991803235A1B5200DB18981ABA3303412340891BD340E8D0029A0398FFF715FBE3E71A9A199B9446032274
:405400001F78069B63440493744B1B681B7C134010D0022B4DD0189A199B944663441993029B01330293059A029B9B1A169A9A42E2DCE1E11B9B1A9C199D0499002B23D0CD
:4054400001231A1B9200CE180333981AEC3303413B40D3401B9A9B009B580398029A0134FFF7DEFA022C02D100246F780135019B049A31009B189E42E2D1CCE7049B019A25
:4054800031009B189E42C6D001231A1B9200CE180333981AEC3303413B40D3400398029A0134FFF7BDFA022CE8D16F7800240135E4E71B9B1A9C019D199E002B27D0019B5D
:4054C000049A991801231A1B92000333981AEC3303413B40491BD34006D01B9A9B009B580398029AFFF79CFA0134022C02D1002477780136013D002DE1D18CE70134022CE6
:4055000002D1002477780136013D002D83D0049B019A991801231A1B92000333981AEC3303413B40491BD340E8D0029A0398FFF777FAE3E7039B08989B680193019A1B6A68
:40554000D16A4143069809180320C9080491234909680B91097C014014D0022900D1ABE0189A199B944663441993089B01330893029B63440293059A089B9B1A169A9A4219
:40558000D8DC39E1019A1B98916B9B0000284ED0002925D00124D318191F04980968199D09180998029A954211D02E780F781B9AB600B2583E008643224201D03E0006434E
:4055C0000E70400801D1013180300135EAE7019A6400043BE4B29A42DED1C1E7DC4202080124019AD318191F0868049A199D07998018029A954213D02E7807781B9AB60036
:40560000B2583E008E43224201D03E000E434900C9B20670002901D1013001310135E8E7019A6400043BE4B29A42DCD198E7019A0124D318002938D0191F0968049A199D3B
:4056400009988918029A95420ED00F782A783E008643224201D03E0006430E70400801D1013180300135EDE7019A6400043BE4B29A42E1D174E707782A783E008E432242D6
:4056800001D03E000E434900C9B20670002901D1013001310135029A9542ECD1019A6400043BE4B29A4200D15AE7191F0868049A199D80180799EEE7019A9B00916B1B9ADA
:4056C000002A4FD0019A0124D318002937D0191F0968049A199D09988918029A954213D02E78002E0AD00F781B9AB600B2583E008643224201D03E0006430E70400801D1EC
:40570000013180300135E8E7019A6400043BE4B29A42DCD124E72E78002E17D14900C9B2002901D1013001310135029A9542F2D1019A6400043BE4B29A4200D110E7191F20
:405740000868049A199D80180799EEE707781B9AB600B2583E008E43224201D03E000E430670DBE7019A0124D318002934D0191F0968049A199D0A988918029A954210D0EE
:405780002A78002A07D00F783E008643144201D03E0006430E70400801D1013180300135EBE7019A6400043BE4B29A42DFD1D7E62A78002A17D14900C9B2002901D10130C7
:4057C00001310135029A9542F2D1019A6400043BE4B29A4200D1C3E6191F0868049A199D80180799EEE707783E008E43144201D03E000E430670DEE711B0F0BD70B5056859
:405800000400002D0AD13C20FEF70EFA2060002804D0044B3C221B682900984720684342584170BDF842020870B504000830FFF7E5FF002205000121A069FCF707F928434D
:4058400070BD73B504000D00160000210822684604F02EFA20000830FFF7D0FFA368002B0CD05A6B002A00D15D635D629E626A460721A06900950196FCF7E8F873BD70B5F4
:40588000050008300C001600FFF7B8FFAB68002B02D0DC621E635C6370BDF7B50500002708300E000197FFF7A9FFAC68BC4213D02B699B68984700F0A1FC3B002062F258CE
:4058C000E2500433202BFAD1E36A01AA63630221A8690196FCF7BAF8F7BD70B5040008300D00FFF78BFFA368002B01D02A689A6370BD000070B5084B1B681A7C1100414073
:40590000490705D59C6BD96B25680E6826600D601874100070BDC046DC42020810B5024B1B689B68984710BDEC42020870B5144B05001B680A000A20195E91421EDC0E20D7
:40594000195E8A421ADC0820195EA94216DC0C20195E8D4212DC5C7C187C0A49A400C00705D508592900C368DB69984706E00859DB6BC1681B688C692900A04770BDC046C5
:40598000DC42020874CA020870B5104B0D001C680A21635EAB4217DC0E21635E9D4213DC0823E15E814200DA01000C20235E934200DD1300994207DC627C0548920010587F
:4059C000C26894682A00A04770BDC046DC42020874CA020873B51E00114B0D001C680823E15E814200DA01000C20235E934200DD13008B4213DB0A20225EAA4200DA2A00CB
:405A00000E20255EB54200DD3500AA4207DC607C044C80000059C46800952469A04773BDDC42020874CA0208F0B517006E4A91B01268069308900C001C9B002A10D01B9B20
:405A400005931A9B0493199B0393189B0293179B0193169B00931568069B3A00A847C1E016991798014301294FD1604A069D10680A21425E111B002909DD6D1A002D00DCF7
:405A8000B0E0199E71431A9E71181A9100E02200069964180E26815F013C641A002C03DD2D1B002D00DC9DE008990C26845FC9190139091B002900DD7F1A08990826845FF2
:405AC000C91AA1420CDA641A1B199C46DE101A9B3F1B9E191A9607266346B44309193340002F7FDD407C424C800000591B9EC46804931A9B05960393199B00950293189BFF
:405B0000019364683B00A0476CE00823160018990A925B1A0E930A9B069A934262DA179BE3180C93013B0D93304B1B680A215A5E0D998A424CDC0E229B5E9C4248DC0025AA
:405B40001A9B09950B93089B0793099BBB423FDA002D04D10B9B08351E7801330B9333000E9A1899134132008A40D6B2DAB26D1A002A05D102211D4A1268127C0A421ED1AC
:405B80001A4A1268D26B11680F911B99002905D0FF210B401B999B005B5801E0FF210B401360169B21005A1E079B0798D2180D9BFFF710FF0D4B0F9A1B68DB6B1A60169ABD
:405BC000099B944601330993079B63440793BCE7199A0A9B944601330A931A9B0C9C63441A9398E711B0F0BD30CA0208DC42020874CA0208F0B593B008937E4B06001B68E7
:405C00000C0006921A9D1C9F002B0ED01D9A049705921B9A02950392199A0192189A00921D68069A089BA847E1E0189A19990A43012A6DD1704B19680A228B5E089A9C468A
:405C40001B1B002B07DDD21A002A00DCCFE01B984343FF1800E0A446089BE4180E200B5E013CE41A002C03DD121B002A00DCBEE0069B0C24085FF318013B1B1A002B02DD18
:405C80000698C31A06930823C85E0023864228DA069C831BE41A0694082D1FD009DC022D0FD0042D15D0012D1BD1D8103F1807200AE0182D11D0202D0FD0102D11D15B0057
:405CC0000CE098103F1803201C0084433619034007E058103F180120F6E79B00FF18060000230698002800DC81E0497C4348890008581D9CC16804931B9B00920293059477
:405D0000039701954C68069B62463100A0476EE00822521B109207930C930C9B089A934265DA199BE3180E93013B0F93324B1B680A215A5E0F998A4252DC0E229B5E9C4247
:405D40004EDC00230D9709960A930B930B9B069A934245DA0A9B002B07D10D9B1B7807930D9B01330D9308230A93079B109A1341079AAA40D2B207920A9A521B0A92DAB2DC
:405D8000002A05D102211C4A1268127C0A421ED1194A1268D26B116811911D99002905D0FF210B401D999B005B5801E0FF210B401360189B21005A1E099B0998D2180F9BDB
:405DC000FFF708FE0C4B119A1B68DB6B1A60189A0B9B944601330B93099B63440993B5E70C9B0E9C01330C931B9BFF1895E713B0F0BDC04630CA0208DC42020874CA020884
:405E000010B5054B054A19684B7C08319B009858C3681B6B984710BDDC42020874CA020807B5FFF7EDFF00F0B7F800283AD1FEF7D7FB0190002807D100F006F91A4A1B4BA4
:405E400012689A420ED12CE0C3680C215B6A01A8984703000120002B24D0019898470028EAD01FE00020FEF7BBFB0190002818D0002001F03FFB0420FFF750FD00210C4B0A
:405E800008001A00FFF7A6FD0020FFF747FD019B0E21DB6801A85B6A9847031E01D00198984700200EBDC046647B0208785634FFFF3F000010B5054B054A1B685B7C9B0096
:405EC0009B581B691B68984710BDC046DC42020874CA020810B5054B054A1B685B7C9B009B581B695B68984710BDC046DC42020874CA0208044B1B681A7C520701D59B6B34
:405F000000E0DB6B18607047DC420208054B10B51B681A6B824204D01863FFF7CBFFFFF7E9FF10BDDC420208044B1B681A7C520701D5DB6B00E09B6B18607047DC42020807
:405F4000054B10B51B685A6B824204D05863FFF7B1FFFFF7E9FF10BDDC42020810B5024B1B685B68984710BDEC42020810B5024B1B681B68984710BDEC42020810B5044CAB
:405F80002068FDF777FD0023024A2360136010BD80CA0208E87B020870B500240A4D2B68A3420FD1094B18688000FDF73DFE2860A04206D00648074B04300360FEF774FAA9
:405FC00000E00124200070BD80CA0208F0420208E87B02087D5F0810F7B5051E28D08768381E25D0134C2068002821D080232A685B0000209A421BDC0F4B00921B689A428F
:4060000000DD00930026009B9E420ADA2268B300D218F8580192FFF74DFF019B01361860F1E7064B1B68002B01D0280098472068FEBDC04680CA0208F0420208E87B0208DF
:4060400010B5FFF7C9FF10BDF7B500F025F900240090009B9C422EDA2000FEF7C1FA002827D0154E200033685A7C5C74019200F056F8082804DD6A46336812795A7418E0B0
:406080000E4AA300D2580E4B12699A42F3D0200000F04AF800250700BD42ECDAFF202840FFF718FFE9B20200200000F01FF90135F2E70134CDE7F7BDDC42020874CA020890
:4060C00080890910024B1B689B6B18687047C046DC420208024B1B68DB6B18687047C046DC42020810B50C00FEF77AFA002803D0C2682100926A904710BD002310B59842E6
:4061000002DCFFF7EFFF0300180010BD10B501000020FFF7E7FFC343DB17184010BD10B50821FFF7EAFF10BD10B50921FFF7E5FF10BD10B50E21FFF7E0FF10BD10B5034BFD
:406140001B68587CFFF7F0FF10BDC046DC42020810B5034B1B68587CFFF7EBFF10BDC046DC420208044B800010B5C0580821C3689B6A984710BDC04674CA020810B5FEF7EA
:406180002FFA002803D0C2680221D26A904710BD10B5034B1B68587CFFF7F0FF10BDC046DC420208024B8000C3581B695868704774CA0208024B8000C3581B691868704776
:4061C00074CA020810B50120FFF7A0FF10BD10B50220FFF79BFF10BD014B03C37047C046F47B0208014B18687047C046F47B0208014B58687047C046F47B02080023984242
:4062000033D0020001339A432FD003220100013391432AD00100053399431300002924D002000C339A430B3B002A1ED002001B339A431A3B002A18D00200FA339A43F73B8E
:40624000002A12D0420A0833002A0ED0020B0CD0C20B0AD0020C08D0820C0233002A04D0000E0633002800D008331800704710B5FFF7C4FF030001280DD0821E0820062A84
:4062800009D9073A0018072A05D900200F22113B9A424041400110BD10B50020FEF7A0F9431E984110BD00000E4B10B51C001A680D49527C92005058002809D0C368002BA1
:4062C00002D01B68042B01D00068F5E7FEF7C6F900222368DA651A0008325A61FFF790FD10BDC046DC42020874CA020837B50C001500FEF775F90190002801D101200BE089
:40630000C36810215B6A01A89847031EF6D001982A002100984700203EBD37B50C001500FEF75EF90190002801D101200BE0C3680B215B6A01A89847031EF6D001982A00B1
:406340002100984700203EBD13B50C00FEF748F90190002801D101200AE0C36809215B6A01A89847031EF6D0019821009847002016BD37B50C001500FEF732F90190002867
:4063800001D101200BE0C3680A215B6A01A89847031EF6D001982A002100984700203EBD10B5074C2368186BFFF784FDFFF7A2FD2368586BFFF77EFDFFF7B6FD10BDC0462A
:4063C000DC42020870B50024134B144D1C60144B14481C60144B04701C60144B44601C60134B84601C60134B21001C60124B18221C600C302B689847104B21001C60104B1F
:4064000008221C600F482B6898472B68082221000D48984770BDC046B0CA0208F842020898CA0208FC7B0208B8CA0208C0CA020888CA0208A8CA0208B4CA020894CA02080B
:406440008CCA0208CCCA0208C4CA0208F0B504000D00160085B0002C50D02000FDF720FB0223876A010001901F4241D002AC002E04D03200200000F0E1FE02E0230005C94A
:4064800005C321002800FDF723FF002830D00122019B17421FD1002E09D05A887188131C08B212B2824200DA0B1C1BB201E002229B5E0222A95E06202A5E8B4205DD0221BB
:4064C000635E9A4214DB013B03E00621635E9A420EDDEB800CE0DF69002F09D0380022002900FFF7B3FF3800FDF7D0FA076AF3E7019B01A81C6AFDF7E3FAACE705B0F0BD9E
:40650000F0B504000F00002687B00192002C39D02000FDF7C5FA0223856A010003901D422AD0019B04AC002B04D01A00200000F085FE02E0230005C905C321003800FDF7CA
:40654000C7FE002818D001231D4204D1A388012601333B8010E0039BDD69002D0CD0220039002800FFF7CCFF002800D001262800FDF78CFA056AF0E7039B03A81C6AFDF7C2
:406580009FFAC3E7300007B0F0BDF0B504000E00170085B0002C34D02000FDF781FA0223856A010001901D4225D002AC002F04D03A00200000F042FE02E0230005C905C372
:4065C00021003000FDF784FE002814D001231D4203D12388013BB3800DE0019BDD69002D09D0280022003100FFF7CFFF2800FDF74DFA056AF3E7019B01A81C6AFDF760FA7E
:40660000C8E705B0F0BD0000F7B506000D0002272800FDF745FA846A010001903C4004D101A8FDF74DFA230013E0300000F0E8FD019B01A89C69002C07D1FDF741FA064B68
:406640001868401B4342434103E0FDF739FA2500DEE71800FEBDC0468CCA0208F0B5040085B00D1E4DD0FDF71BFA00230190036285612800FDF714FAC6690290002E05D1EC
:40668000C46101A8FDF71CFA02A838E0019B30009D6A0827FDF704FA3D4003900ED1836A3B420BD0019B01A81E62029BDC61FDF707FA02A8FDF704FA03A820E002A8FDF79F
:4066C000FFF903A8FDF7FCF93000FDF7DFF908270390039B1E6A002E01D11C620EE03000FDF7D4F9002D07D1836A3B4204D0039B1C62019B1E6201E00390EAE701A8FDF770
:40670000DFF905B0F0BD030010B5080002215A5E0021595EFDF7C3FD10BD0000114B30B51D6885B0696C0400002916D0082202A803F098FA0C4B1868002800D1A86CFDF707
:40674000AFF902A90190FFF7DEFF01A8FDF7B8F902A8210000F054FD02A802F0D7FC05B030BDC046DC42020888CA02081FB5104B1B681A0054321278002A02D00D481430FC
:4067800012E0986CFDF78CF902AC2300019006C806C301A8FDF794F9074B1968002902D02000FFF731FF2000FFF7B8FF1FBDC046DC420208FC7B020888CA020813B5041E95
:4067C00022D0FDF76DF9836A01909B0719D5406A002808D00D4B1B689C4204D000F00CFF0022019B5A62200000F034FC0400002C07D02000FFF7E2FF2000FDF747F9046A93
:40680000F5E701A8FDF75CF913BDC046BCCA020803000022815E04201A5E0020914207DC02215A5E0621595ED00FCB179142584170470000F0B585B004000E001500FDF71C
:4068400025F9876A0190BB0730D53000FFF7E0FF00282BD0164B3B40012B27D02000FDF71FF902AC020001903100200000F0E6FC2000FFF7CDFF002815D0019B0D49180001
:406880009A6A08300A4204D022000100FDF7D6FC09E042CC42C02A439A62074A138801331380FEF797F801A8FDF70AF905B0F0BD01080000204000009CCA020810B5202218
:4068C000FFF7B8FF10BD7FB504000E001500002828D0FDF7E5F8836A020001909B0703D401A8FDF7EDF81DE0310002A800F0A6FC0028F5D001A8FDF7E3F820002A0002A993
:40690000FFF798FF200000F0A5FB0400002C09D020002A0002A9FFF7D6FF2000FDF7B6F8046AF3E77FBD0000F0B587B007000D0001921C00002932D00800FDF7B1F8866AAC
:4069400002000390B30727D5390004A800F076FC002821D0134B1E40012E07D1039923000A6A04A88969FFF7DFFF04E0220004A92800FFF75FFF039BDD69002D0CD0019B4C
:406980009D4209D02800220004A9FFF79CFF2800FDF77CF8056AF0E703A8FDF791F807B0F0BDC0460108000010B52023FFF7BCFF10BD1FB500916946019000F011FB05B04A
:4069C00000BD00234B800B80028883889B1A8B80C38842889B1ACB8070470000F0B5050087B00F00002835D0FDF75AF8866A0190B3072CD504AC230006C806C3F30302D56A
:406A00002800FFF7DBFE002F0CD00822390002A803F028F902A90198FFF775FE02A9200000F0EEFB29002000FFF7EEFD00280ED0094B1E40012E06D1019B20001A6A9969B8
:406A4000FFF7B2FF03E021002800FFF737FF01A8FDF736F807B0F0BD0108000010B50021FFF7BCFF10BD000070B50B4C051E23689E6C01D1094A15689D64FFF7C1F92800CC
:406A8000FDF704F823680021425EDA640221425E30001A6570BDC046DC420208A0CA0208F0B585B00193494B05001F680A9B0E000092002B27D1464B1B88002B28D0454B3E
:406AC0001B685A1C012A23D90A930A98FCF7E8FF03900022835E0222815E009AED187618002A04D10424025FD21A531C0093019B002B04D10622835E5B1A0133019303A894
:406B0000FCF7DEFF04E00A9B0133DED100230A930D982C30FDF76EF9041E53D02C4A0B9B1F43138801331380FCF7BAFF009B02900580ED18019B4680F6180C9B826A03610E
:406B4000254B013D3B401343013E83628580C68002A8FCF7B5FF214B1868002809D0FCF795FF05002000FCF791FF6B6943616C6100E01C600A992000FFF770FDBB0602D55B
:406B80002000FFF771FFFB0703D5154A1368013313607B0602D5200000F06AFA02252F420CD02000FCF77CFF836A02902B43836202A8FCF785FF2000FFF750FF012120008C
:406BC000FFF7F7FE200005B0F0BDC046A8CA020884CA02088CCA02089F3F3F00A0CA0208C0CA02081FB5089C0394079C0294069C019400240094FFF753FF04B010BD0000C9
:406C00000020F0B5534E85B0336854331B78834200D19DE0504A136A1500012B02DD013B136295E002AC2100D36914320133936081CA81C1002B03D1AB892380EB890DE058
:406C40002B8B01331BB22380EA8A628010216A5E9A4204DAAB8923806B8B013363800223E25E12216B5E9A4204DD2B6A0020013B2B626DE03368986CFCF712FF0023E25EDE
:406C80000C216B5E01909A4217D16B8AE3802B8AA38033689A6C002A0AD01000FCF7F6FE070000222100006AFFF7D0FBBA69F2E7019B2100D869FFF7C9FB2388A38033682B
:406CC0009A6C002A0CD01000FCF7E0FE002207002100006AFFF714FC0028EED1BA69F0E7019B2100D869FFF70BFC0028E5D11022AB5E0021625EA3809A4208DD2B002200E6
:406D0000143303CA03C301A8FCF7DAFEA2E733689A6C002A0AD01000FCF7B8FE060000222100006AFFF731FCB269F2E7019B2100D869FFF72AFC01A8FCF7C2FE074BEA6939
:406D40009A4292DC14350CCC0CC5FFF70FFD012005B0F0BDDC420208FC7B0208204E0000F0B53B4D89B02A680700130054331B78002B03D1FFF7FAFC012066E00120354E19
:406D8000336A34000133336283425EDC906CFCF787FE01235B42F3612F4B02901B78002B02D004AB083005E00223826A1A4001920AD004AB06C806C304AE002F0CD0390035
:406DC000300000F01DFA07E0336A02A8013B3362FCF776FE019838E02B68204F596C02A8002918D0029B082206A8039302F03AFF3B68002B06D003A8FCF762FE3868FCF758
:406E00004FFE039006A90398FFF77DFC300006A900F0F6F903A8FCF753FE3968002904D03000FFF7F1FB002806D02B683000996CFFF7EAFB002803D1236A013B236204E08D
:406E40000C340CCE0CC4FFF7DBFE09B0F0BDC046DC420208FC7B0208A5CA020888CA02080122024B1B6854331A707047DC42020810B5040023684068172B0FD007DC0E2B53
:406E80000ED0142B12D1E16800F0CEF80EE0222B0AD0282B0AD1FFF7E1FD09E0E06007E0210000F025F903E0024B00E00023E36010BDC046785634FF036810B504000E2BC6
:406EC00002D00F2B08D010E0C3685A68012A0FD11868FDF741FD0BE0064B1868064B984203D0FDF71BFAFDF7CFFA2000FFF7C0FF10BDC046ACCA0208785634FF30B51B4C1F
:406F000085B0207800282ED1194BA0601860194B01001B685864184B1880184B188004230293174B019302230093164B1A00FFF759FE154B154A164D1A602860FFF78EFD10
:406F4000144800F069F8144800F066F82868FFF78BFDFFF785FF0123200023700F4B24306362FDF7A1FA05B030BDC046FC7B0208A0CA0208DC4202089CCA020884CA0208CC
:406F8000B96E0810FF3F0000ACCA0208785634FF8CCA0208CCCA0208C4CA0208C563081010B500F05EF80023984202D0FCF76EFDC369180010BD70B50500FFF7F1FF04009E
:406FC000002C0AD0AC4207D02000FCF75FFD036A9D4202D01C00F3E70024200070BD000070B50C4C060023680D00132B11DCFCF74DFD02696E60002A08D02368280001332D
:40700000236090472368013B236002E02800FFF72FFF70BD2C7C0208024B1A68026018607047C046B0CA020813B50C0000280AD0002908D0FCF734FD21000190FFF7C1FC55
:4070400001A8FCF73DFD13BD014B18687047C0468CCA020810B5002802D0FCF717FDC06910BD10B5002802D0FCF710FD806910BDF0B5040089B0002838D0FCF711FD02003B
:40708000039006AB22CA22C3836A076A03A80193FCF716FD2000FFF78EFF051E26D02000FFF7DFFF019B06009B0704D501003A0006A8FFF779FC2000FCF7F2FC0390300033
:4070C000FCF7EEFC05902800FCF7EAFC059B039AD96907620490116203A8DC61FCF7F0FC05A8FCF7EDFC04A8FCF7EAFC09B0F0BD70B505000C1E07D0FFF7B3FF002803D025
:40710000A5602100FFF76CFF70BD0000F7B505000E000120002D66DC334F7B683C00002B01D028009847012E04D0022E20D0002E58D133E0AF00E719BC68002C14D128000F
:40714000FDF74EFA019000284CD0C3680D215B6A01A89847031E45D0310001989847BB6820000133BB603EE0601CB86030003AE02800FDF735FA0190002833D0C3680D218B
:407180005B6A01A89847051E2CD02368002B00D0984702210198A847002024E0AF00E3199B68012B01D0012014E02800FDF718FA01900028F7D0C3680D215B6A01A898471B
:4071C000051EF0D02368002B00D0984700210198A8470020E719BB681A00511E8A419B1ABB6000E00120FEBD307C020810B5034B01001B68587CFFF789FF10BDDC420208E7
:4072000010B500228B5E0024025F9A4200DA038002228B5E0224025F9A4200DA438004228B5E0424025F9A4200DD838006228B5E0621425E9A4200DDC38010BDF7B5138877
